:100000000C94D2020C940C050C94E5040C94190386
:100010000C9419030C9419030C9419030C941903F0
:100020000C9419030C9419030C9419030C941903E0
:100030000C9419030C9419030C9419030C941903D0
:100040000C94ED0C0C9419030C9459050C94330585
:100050000C9419030C9419030C9419030C941903B0
:100060000C94BF070C941903A80F6E103E10DE0FFE
:10007000031009106E1029106E1006103B106E1040
:100080003010002C20000000000023002600290072
:100090000007060000030242070000000000000005
:1000A0000000000000000000000000000000000050
:1000B00000001F06100000000000000003000901FE
:1000C0000100000600060000000000000000000023
:1000D0000000001F06101C000000000000000000CF
:1000E000000000000000000000000000000000030D
:1000F0009001FF001F061038FFFF02580A0500009C
:1001000000000000000000000000000000000000EF
:100110000000000000050610540000000000000070
:1001200000000000000000000000000000000000CF
:100130000000000000001F0620000404020200016D
:100140002800010018040405050002280301020329
:1001500000002A040414001F06201C0900032A00C2
:10016000014D7920446576696365692E636F6D0082
:1001700000000000000404001F06203805050004EC
:10018000280301020500012A0604030200052A01D2
:100190000100000404050500001F06205406280382
:1001A00001020700042A0604090800072A0401FFC7
:1001B000FFFFFF0000FFFF0404001F062070020283
:1001C000000828000101180404101000092800018B
:1001D00043E933389EBCE8ABA94D001F06208C34A0
:1001E000610000B17404041313000A280301320BE8
:1001F0000043E933389EBCE8ABA94D001F0620A898
:1002000034610100B17436040504000B00010200E2
:1002100000000046140302000C290201001F062002
:10022000C4000004041313000D280301320E004320
:10023000E933389EBCE8ABA94D34610200001F06CB
:1002400020E0B17436040302000E000202000046F2
:10025000140302000F290201000004041313001FFD
:100260000620FC001028030132110043E933389EB8
:10027000BCE8ABA94D34610300B174360405040039
:1002800018062118001100030200000000461403A4
:10029000020012290201000000000000000000001E
:1002A000001F064000000102008604000B000C0045
:1002B0000202008604000E000F0003020086040004
:1002C00011000506401C00120000000000000000A4
:1002D000000000000000000000000000000000001E
:1002E0000000001306500043E933389EBCE8ABA978
:1002F0004D34610000B174000000000000000000F7
:10030000000000000C06600000000000000000007B
:1003100000000000000000000000000000000000DD
:1003200000000000000606F00003ACC10000000061
:1003300000000000000000000000000000000000BD
:10034000000000000041726475696E6F207365746F
:1003500075700020756E68616E646C65640045762A
:1003600074204F70636F6465203078004164766557
:1003700072746973696E6720737461727465640066
:100380004857206572726F723A2000417474726926
:10039000627574652070726F746F636F6C20414377
:1003A0004B20666F722054656D702E206D656173F1
:1003B0007572656D656E7420496E646963617469F8
:1003C0006F6E0045767420506970652053746174B7
:1003D0007573004164766572746973696E67207322
:1003E0007461727465640045767420446973636F48
:1003F0006E6E6563746564202D3E204C696E6B20C3
:100400006C6F73742E006E52463830303120676F37
:10041000696E6720746F20736C6565700045767433
:1004200020446973636F6E6E6563746564202D3E4E
:10043000204164766572746973696E672074696DB2
:100440006564206F75740045767420437265646935
:10045000743A205065657220526164696F2061634F
:100460006B6564206F75722073656E6400457674E9
:1004700020436F6E6E656374656400414349204399
:100480006F6D6D616E642030780045767420436D29
:100490006420726573706F6E653A204572726F7278
:1004A0002E2041726475696E6F20697320696E2019
:1004B000616E207768696C652831293B206C6F6F0D
:1004C000700041434920436F6D6D616E6420307848
:1004D0000041434920537461747573206F66204155
:1004E00043492045767420436D6420527370203058
:1004F00078004164766572746973696E67207374FD
:10050000617274656400457674204465766963653C
:1005100020537461727465643A205374616E64622E
:10052000790042726F616463617374696E672073EE
:1005300074617274656400457674204465766963FD
:100540006520537461727465643A205365747570E4
:100550000000000000240027002A00000000002501
:100560000028002B00040404040404040402020212
:1005700002020203030303030301020408102040E4
:10058000800102040810200102040810200000006D
:100590000800020100000304070000000000000042
:1005A0000000041311241FBECFEFD4E0DEBFCDBF87
:1005B00094B784B7877F84BF0FB6F894A8958091CD
:1005C0006000886180936000109260000FBE93FF0E
:1005D0000EC08091D9059091DA0582349C4D39F492
:1005E0001092DA051092D905E0E0F0E7099512E0E3
:1005F000A0E0B1E0EAE9FBE202C005900D92AA3C5E
:10060000B107D9F725E0AAECB2E001C01D92A93DDF
:10061000B207E1F712E0C2EDD2E004C02197FE017B
:100620000E94B715C13DD107C9F70E94370D0C9440
:10063000CB150C9400000895CF92DF92EF92FF92B9
:100640000F931F93CF93DF936C017A018B01C0E06E
:10065000D0E0CE15DF0589F0D8016D918D01D6016E
:10066000ED91FC910190F081E02DC6010995892B57
:1006700011F47E0102C02196ECCFC701DF91CF912A
:100680001F910F91FF90EF90DF90CF900895FC01A4
:10069000538D448D252F30E0842F90E0821B930BE7
:1006A000541710F0CF96089501970895FC01918D8D
:1006B000828D981761F0828DDF01A80FB11D5D96C4
:1006C0008C91928D9F5F9F73928F90E008958FEF32
:1006D0009FEF0895FC01918D828D981731F0828DE6
:1006E000E80FF11D858D90E008958FEF9FEF08953D
:1006F000FC01918D228D892F90E0805C9F4F821BA1
:1007000091098F739927089583E295E00E947803F9
:1007100021E0892B09F420E0822F0895FC01848DCB
:10072000DF01A80FB11DA35ABF4F2C91848D90E01B
:1007300001968F739927848FA689B7892C93A089F6
:10074000B1898C9180648C93938D848D981306C0AD
:100750000288F389E02D80818F7D80830895EF9258
:10076000FF920F931F93CF93DF93EC0181E0888F6B
:100770009B8D8C8D981305C0E889F989808185FD52
:1007800024C0F62E0B8D10E00F5F1F4F0F73112743
:10079000E02E8C8DE8120CC00FB607FCFACFE8896A
:1007A000F989808185FFF5CFCE010E948E03F1CFBC
:1007B0008B8DFE01E80FF11DE35AFF4FF0820B8F86
:1007C000EA89FB898081806207C0EE89FF896083A6
:1007D000E889F98980818064808381E090E0DF91FD
:1007E000CF911F910F91FF90EF900895CF93DF93DA
:1007F000EC01888D8823C9F0EA89FB89808185FD19
:1008000005C0A889B9898C9186FD0FC00FB607FC79
:10081000F5CF808185FFF2CFA889B9898C9185FFBA
:10082000EDCFCE010E948E03E7CFDF91CF910895E7
:1008300080E090E0892B29F00E94840381110C94C0
:10084000000008950895E091140380911303E817C0
:1008500030F4F0E0EB5EFC4F808190E008958FEF84
:100860009FEF08959091140380911303981750F40B
:10087000E92FF0E0EB5EFC4F208130E09F5F90932A
:10088000140302C02FEF3FEFC901089580911303B5
:1008900090E020911403821B91090895089580E04F
:1008A00090E0089585ED8093BC008091BC0084FDAC
:1008B000FCCF1092D00308954091EC02262F30E037
:1008C000240F311D21323105DCF42091D003243076
:1008D000C9F4FC0180E090E0861758F43091EC02F6
:1008E0002191DC01A653BD4FA30FB11D2C9301969E
:1008F000F3CF8091EC02680F6093EC0280E00895E2
:1009000081E0089582E00895CF92DF92EF92FF9206
:100910000F931F93CF93DF937C01262F972F8A018C
:100920008091D103882391F0C62FD72F6E01C40E7A
:10093000D51ECC15DD0571F06991D701ED91FC91C3
:100940000190F081E02DC7010995F3CF642F822F2C
:100950000E945C04C801DF91CF911F910F91FF901D
:10096000EF90DF90CF900895CF93DF931F92CDB794
:10097000DEB769832091D1032223D1F02091F403C3
:10098000203240F021E030E0FC013383228380E01C
:1009900090E015C08091D203E82FF0E0ED52FC4FBB
:1009A000998190838F5F8093D2038093F40305C075
:1009B00061E0CE0101960E945C0481E090E00F901E
:1009C000DF91CF9108950E94BD151F920F920FB62F
:1009D0000F9211242F933F934F935F936F937F93C5
:1009E0008F939F93AF93BF93EF93FF93E0911E017B
:1009F000F0911F010995FF91EF91BF91AF919F91E8
:100A00008F917F916F915F914F913F912F910F90B7
:100A10000FBE0F901F9018951F920F920FB60F9256
:100A200011242F933F934F935F936F937F938F93F3
:100A30009F93AF93BF93EF93FF93E0911C01F091CD
:100A40001D010995FF91EF91BF91AF919F918F91FA
:100A50007F916F915F914F913F912F910F900FBEBA
:100A60000F901F9018951F920F920FB60F9211249E
:100A70002F933F934F935F936F937F938F939F93A6
:100A8000AF93BF93EF93FF9383E295E00E948E03B1
:100A9000FF91EF91BF91AF919F918F917F916F9156
:100AA0005F914F913F912F910F900FBE0F901F902C
:100AB00018951F920F920FB60F9211242F938F93B8
:100AC0009F93EF93FF93E0913305F091340580817C
:100AD000E0913905F0913A0582FD12C09081809134
:100AE0003C058F5F8F7320913D05821751F0E09197
:100AF0003C05F0E0ED5DFA4F958F80933C0501C019
:100B00008081FF91EF919F918F912F910F900FBE58
:100B10000F901F901895E0917B03F0917C0360E0AB
:100B200081810C94220CEF92FF920F931F93CF932D
:100B30008C017B010E948B05F80181818EBD000034
:100B40000DB407FEFDCF8EB5F7018083F8018281D9
:100B50008EBD00000DB407FEFDCFCEB5F701C183F9
:100B6000F8018181882349F0282F30E04C2F50E094
:100B70004217530714F4CFEFC80FC03208F0CFE18B
:100B8000F2E0EF0EF11CF8013396D7018A2F8E198F
:100B90008C1748F481918EBD00000DB407FEFDCF87
:100BA0008EB58D93F3CFE0917B03F0917C0361E0F0
:100BB00081810E94220C81E0C11101C080E0CF91AF
:100BC0001F910F91FF90EF900895CF93DF93CDB7D2
:100BD000DEB7C254D1090FB6F894DEBF0FBECDBF49
:100BE0008091000590910105891709F471C0E82FE3
:100BF000E37091E29E9FF0011124E458FB4FDE0167
:100C0000929601900D929A95E1F78F5F809300057F
:100C1000BE016F5F7F4FCE0182960E9493052091A7
:100C20007B0430E080917A0490E00496281739071D
:100C300031F0909100058091010598134CC04A81D4
:100C4000442309F44BC080917B04682F70E020910D
:100C50007A0430E02C5F3F4F6217730711F1837005
:100C600021E2829FC0011124FC01EA50FC4F108256
:100C700050E04F5F5F4FBE016E5F7F4F89509C4FCA
:100C80000E94C21580917B048F5F80937B0490E06B
:100C900020917A0430E02C5F3F4F82179307F1F4E4
:100CA00001C0FFCFE0917B03F0917C03E385E2304C
:100CB000A8F4E13011F0E89801C0E998F0E0EE0FF7
:100CC000FF1FE45EFE4F8BE193E09183808306C0BB
:100CD0001AA21BA29DCF0E948B05B1CFCE5BDF4F26
:100CE0000FB6F894DEBF0FBECDBFDF91CF91089550
:100CF0000F931F93CF93DF938C01FC01D1816D2F54
:100D000070E080E090E04AE00E94BD0984E491E058
:100D10000E94BB09C0E0F801EC0FF11D618170E099
:100D200080E090E040E10E94BD0983E890E00E94ED
:100D3000160ACF5FDC1778F782E890E0DF91CF9159
:100D40001F910F910C94370A009721F48FE890E0DF
:100D50000E94FE09F894FC01EB57FF4F408150E0E0
:100D60003197208130E02C5F3F4F81E042175307DD
:100D700009F080E078940895009721F487E790E0E7
:100D80000E94FE09F894DC01AC57BF4FFC01EB5701
:100D9000FF4F81E02C919081291380E07894089591
:100DA000DF92EF92FF920F931F93CF93DF93EC01AB
:100DB0008B01FB01D180009719F481E590E004C01C
:100DC000672B21F482E590E00E94FE090E94A406B0
:100DD000811122C07E01F5E8EF0EF11CF7012081A0
:100DE0002370F1E22F9F90011124FE01E20FF31F07
:100DF0001082C90101964D2D50E04F5F5F4FB80141
:100E00006F5F7F4F8C0F9D1F0E94C215F70180817D
:100E10008F5F808381E001C080E0DF91CF911F91DF
:100E20000F91FF90EF90DF9008950F931F93CF9352
:100E3000DF93EC018B01009719F48FE290E004C07E
:100E4000672B21F480E390E00E94FE090E94BC061B
:100E5000811117C0CE018C579F4FFC013081337038
:100E600021E2FE01239FE00DF11D1124D801019024
:100E70000D922A95E1F7FC0120812F5F208381E00C
:100E800001C080E0DF91CF911F910F9108950F93E2
:100E90001F93CF93DF93CDB7DEB7C254D1090FB6FE
:100EA000F894DEBF0FBECDBF86EF93E00E94A4068C
:100EB000811159C0E0917B03F0917C03228130E0E5
:100EC000F901E357FA4F8491F901E758FA4F049179
:100ED000F901EB59FA4F14911123B9F081110E94D5
:100EE000F90BE12FF0E0EE0FFF1FEA57FF4FA5913E
:100EF000B491EC91E02349F08CE794E00E94BC06A9
:100F0000811131C00E948B052EC0BE016E5D7F4FE6
:100F10008CE794E00E941507811102C01AA21BA25F
:100F2000BE016F5F7F4FCE0182960E94930586EFD0
:100F300093E00E94A406811106C08CE794E00E9411
:100F4000BC06882369F08A81882369F0BE016F5F3F
:100F50007F4F86EF93E00E94D006811104C0FFCF3F
:100F60000E948B05F0CFCE5BDF4F0FB6F894DEBF4B
:100F70000FBECDBFDF91CF911F910F9108951F92AA
:100F80000F920FB60F9211242F933F934F935F93BD
:100F90006F937F938F939F93AF93BF93EF93FF9341
:100FA0008091B900887F803609F49CC068F588324A
:100FB00009F45BC090F4803109F454C038F48823FC
:100FC00009F4F6C0883009F44DC0F6C0883109F440
:100FD0004CC0803209F45DC0EFC0803409F468C0B1
:100FE00048F4803309F455C0883309F0E5C0809394
:100FF000CE03D8C0803509F44FC0883509F45DC0F0
:10100000883409F0D9C0D6C0883909F4C7C0A8F41B
:10101000883709F467C038F4883609F463C080372C
:1010200009F460C0C9C0883809F4B8C0803909F42F
:101030005FC0803809F0C0C05BC0803B09F486C047
:1010400038F4803A09F466C0883A09F47FC0B4C025
:10105000803C09F4A7C0883C09F4A4C0883B09F48B
:101060008AC0AAC08091AB0310C09091CD0380913B
:10107000CC03981770F5E091CD0381E08E0F80933B
:10108000CD03F0E0E455FC4F80818093BB0085ECFC
:1010900086C08093CE038EC0E091CD0381E08E0F99
:1010A0008093CD038091BB00F0E0E455FC4F80833A
:1010B0009091CD038091CC036EC0E091CD0381E08F
:1010C0008E0F8093CD038091BB00F0E0E455FC4F80
:1010D00080838091CF0381116DC081E08093AA034A
:1010E00084EA61C083E08093D00310921003CFCFD5
:1010F00080911003803208F051C0E091100381E02C
:101100008E0F809310038091BB00F0E0E051FD4F03
:101110008083BDCF85EC8093BC001092D00380917A
:101120001003803230F4E0911003F0E0E051FD4F05
:1011300010826091100370E0E091EE02F091EF02F6
:1011400080EF92E009951092100336C084E08093FE
:10115000D0031092ED021092EC02E091EA02F091BD
:10116000EB0209958091EC02811105C081E080932A
:10117000EC021092CA02E091ED0281E08E0F8093A2
:10118000ED02F0E0E653FD4F80818093BB0090912B
:10119000ED028091EC02981708F479CF85E88093EE
:1011A000BC000AC085EC8093BC001092D00304C040
:1011B0001092CE030E945204FF91EF91BF91AF9124
:1011C0009F918F917F916F915F914F913F912F915F
:1011D0000F900FBE0F901F901895CF93C62F91E0E0
:1011E0009093D10399E39093F3031092D20310925A
:1011F000F403682F606880EC95E00E94B4046C2FC3
:1012000080EC95E00E94B40481E0CF910C946D0ACB
:10121000CF93DF93CDB7DEB765970FB6F894DEBFF7
:101220000FBECDBFE0911103F09112038389948921
:101230008230910511F0049729F580913603909141
:101240003703A0913803B09139038A839B83AC8321
:10125000BD8326E02093030525E12093040527E0C4
:10126000209305058093060590930705A093080534
:10127000B09309050E94450A882321F087E491E094
:101280000E94AD098091360390913703A0913803F5
:10129000B0913903E0911103F0911203208D2130B8
:1012A00029F08BE691E00E94AD0919C08A839B83E7
:1012B000AC83BD8326E0209303052DE02093040535
:1012C00029E0209305058093060590930705A093D8
:1012D0000805B09309050E94450A882311F3E0919F
:1012E0001103F09112038681813061F085EA91E06B
:1012F00065960FB6F894DEBF0FBECDBFDF91CF91DC
:101300000C94AD099091350383E0809303052DE0A3
:101310002093040580930505909306050E94450AD5
:10132000882321F365960FB6F894DEBF0FBECDBFBC
:10133000DF91CF910895009769F0FC0101900020A2
:10134000E9F73197AF01481B590BBC0183E295E0E7
:101350000C941C0380E090E00895CF93DF930E94EB
:101360009B09EC0189ED91E00E949B098C0F9D1F68
:10137000DF91CF9108950C949B098F929F92AF9229
:10138000BF920F931F93CF93DF93CDB7DEB7A19793
:101390000FB6F894DEBF0FBECDBF19A2423008F4DD
:1013A0004AE08E010F5D1F4F842E912CA12CB12C91
:1013B000A50194010E949515E62FB901CA010150BB
:1013C0001109EA3014F4E05D01C0E95CD801EC9346
:1013D000232B242B252B61F7C8010E949B09A19682
:1013E0000FB6F894DEBF0FBECDBFDF91CF911F9136
:1013F0000F91BF90AF909F908F900895EC0188E679
:1014000092E00E94BB098FE692E00E94BB0982EC49
:1014100092E00E94BB09BE0180E090E04AE00E9499
:10142000BD098AED91E00E94BB09FFCF0F931F9386
:10143000CF93DF938C01C0E0D0E0F801EC0FFD1FEB
:101440006491662371F0E0912305F09124050190E9
:10145000F081E02D83E295E00995892B11F021962A
:10146000ECCFCE01DF91CF911F910F910895CF93D3
:10147000DF930E94160AEC0189ED91E00E949B091E
:101480008C0F9D1FDF91CF910895CF93809103051D
:10149000803210F0C0E01EC062E075E08CE794E09E
:1014A0000E94D0068823B1F386EF93E00E94A40641
:1014B000811102C00E948B05C091F503CC2349F035
:1014C00085EC92E00E94BB0982E095E00E947806DC
:1014D00001C0C1E08C2FCF910895382F2091F403E3
:1014E0009091F303213208F049C08091D00381111B
:1014F000FCCF42E04093D0033093CF033FEF3093D3
:10150000CE031092CD032093CC03A3EDB3E04CEABD
:1015100053E0FA013E2F341B321718F43D913193FA
:10152000F9CF1092AB032091AB03990F922B9093BC
:10153000AB039091AA03913061F41092AA039091A9
:10154000AB039093BB009091BC0093FDF8CF95EC5A
:1015500001C095EE9093BC009091D0039230E1F3DE
:101560009091CE039F3F79F08091CE03803241F07D
:101570008091CE03803331F084E005C081E003C068
:1015800082E001C083E01092D2031092F403109223
:10159000D10308958230C8F4E82FF0E0EE0FFF1F6A
:1015A000E45EFE4F25EE35E031832083813039F053
:1015B000809169008C7F80936900E89A08958091FA
:1015C0006900837F80936900E99A08950F931F93C0
:1015D000CF93DF93EC01E0917B03F0917C03828554
:1015E000811107C086EF93E00E94A406882309F4C6
:1015F00087C086EF93E00E94A406082FBE0186EF05
:1016000093E00E941507182F882309F47FC080916A
:10161000F503882339F087EC92E00E94BB09CE01E4
:101620000E947806002351F0E0917B03F0917C0347
:101630008285882319F083850E94CA0A86EF93E089
:101640000E94A406811107C08CE794E00E94BC06AA
:10165000882309F458C09A81963839F190F4953866
:1016600009F054C08A859B859093940380939303DB
:101670008C859D8590939603809395038E859F8599
:101680003AC0983819F1993809F040C08B819C8193
:1016900090939403809393038D819E8190939603FE
:1016A000809395038F81988526C0E1EAF3E088E076
:1016B0008E0FDF0118971C9211928E13FACF1092A1
:1016C000A903809190038093920320C0FE013B9672
:1016D000A1EAB3E0AE014D5E5F4FCF010897EC0188
:1016E0002881CD010897EC01288381918D93E4171F
:1016F000F50799F70BC0909398038093970306C062
:101700000E94470776CF0E948B05A5CF812FDF91DE
:10171000CF911F910F9108951F93CF93DF93EC0109
:1017200010E0888190918E038917E0F460918C031A
:1017300070918D0391E2899F600D711D1124FB0151
:101740003196449150E04E5F5F4F82E095E00E94F9
:1017500050130E94450A882329F088818F5F88836F
:1017600011E0DFCF812FDF91CF911F910895E0919C
:101770007B03F0917C038285811102C00E944707A0
:1017800086EF93E00E94BC06811111C0E0917A04BB
:10179000E37081E28E9FF0011124EA50FC4FA2E039
:1017A000B5E001900D928A95E1F781E0089580E01F
:1017B0000895E2E0F5E025E021832FE02283148202
:1017C0002EE12383968385830C94450ACF93DF9380
:1017D000BC01990F880B990B40E10E94BD09EC01F7
:1017E00089ED91E00E949B098C0F9D1FDF91CF91A5
:1017F0000895833081F028F4813099F08230A1F08F
:1018000008958730A9F08830B9F08430D1F4809100
:1018100080008F7D03C0809180008F77809380004F
:10182000089584B58F7702C084B58F7D84BD0895F7
:101830008091B0008F7703C08091B0008F7D80933E
:10184000B00008951F93CF93DF93282F30E0F90164
:10185000E357FA4F8491F901E758FA4FD491F9010F
:10186000EB59FA4FC491CC23C9F0162F81110E9475
:10187000F90BEC2FF0E0EE0FFF1FE55AFA4FA591A0
:10188000B4918FB7F894111105C09C91ED2FE0959C
:10189000E92302C0EC91ED2BEC938FBFDF91CF9148
:1018A0001F910895CF93DF9390E0FC01E758FA4F22
:1018B0002491FC01EB59FA4F8491882361F190E067
:1018C000880F991FFC01EF5AFA4FC591D491FC0182
:1018D000E55AFA4FA591B491611109C09FB7F894E8
:1018E0008881209582238883EC912E230BC062305F
:1018F00061F49FB7F8943881822F80958323888381
:10190000EC912E2B2C939FBF06C08FB7F894E881E3
:101910002E2B28838FBFDF91CF9108958F929F92B6
:10192000AF92BF92CF92DF92EF92FF926B017C0158
:101930000E94C80C4B015C01C114D104E104F10404
:10194000F1F00E94C80CDC01CB0188199909AA09A1
:10195000BB09883E9340A105B10570F321E0C21A8E
:10196000D108E108F10888EE880E83E0981EA11CDA
:10197000B11CC114D104E104F10419F7DDCFFF90CB
:10198000EF90DF90CF90BF90AF909F908F90089591
:101990003FB7F8948091D5059091D605A091D705D1
:1019A000B091D80526B5A89B05C02F3F19F0019628
:1019B000A11DB11D3FBFBA2FA92F982F8827820FD5
:1019C000911DA11DB11DBC01CD0143E0660F771F24
:1019D000881F991F4A95D1F708951F920F920FB64D
:1019E0000F9211242F933F938F939F93AF93BF93A5
:1019F0008091CC059091CD05A091CE05B091CF05F9
:101A00003091D40526E0230F2D3720F40296A11D36
:101A1000B11D05C029E8230F0396A11DB11D209318
:101A2000D4058093CC059093CD05A093CE05B093BB
:101A3000CF058091D5059091D605A091D705B0919D
:101A4000D8050196A11DB11D8093D5059093D605AB
:101A5000A093D705B093D805BF91AF919F918F9177
:101A60003F912F910F900FBE0F901F901895CF931D
:101A7000DF93CDB7DEB729970FB6F894DEBF0FBE60
:101A8000CDBF789484B5826084BD84B5816084BD07
:101A900085B5826085BD85B5816085BD80916E000C
:101AA000816080936E00109281008091810082603D
:101AB000809381008091810081608093810080917A
:101AC00080008160809380008091B1008460809369
:101AD000B1008091B00081608093B00080917A0065
:101AE000846080937A0080917A00826080937A008B
:101AF00080917A008E7F80937A0080917A0080684E
:101B000080937A001092C100109214031092130374
:101B10001092D2031092F4031092D00311E01093AC
:101B2000CF031092AA0361E082E10E94220C61E0DF
:101B300083E10E94220C8091B9008E7F8093B900CE
:101B40008091B9008D7F8093B90080E28093B800C6
:101B500085E48093BC00E0913305F091340502E008
:101B60000083E0912F05F09130051082E09131055E
:101B7000F091320587E6808310923B05E0913705AE
:101B8000F091380586E08083E0913505F0913605C7
:101B9000808180618083E0913505F09136058081F8
:101BA00088608083E0913505F091360580818068FA
:101BB0008083E0913505F091360580818F7D8083AB
:101BC00085E493E00E94370A80E091E090938A03D5
:101BD0008093890389E080938B0320E930E0309380
:101BE0008D0320938C0395E190938E0310927D03D7
:101BF0009AE090937E0300937F039BE09093800391
:101C00009CE0909381039DE09093820395E09093F4
:101C10008303809384038FEF8093850380938603EF
:101C20001092870310938803A1EAB3E043E453E0E2
:101C300088E0840F9D0128503109F90110821D921E
:101C4000FA011192AF018E13F5CF10924203109258
:101C500041031092400310923F0310923E031092F2
:101C60003D038091890390918A039093120380939E
:101C7000110380E990E090933C0380933B03109222
:101C8000F5038DE793E090937C0380937B031FB76C
:101C9000F89480913A03811127C0EFE6F5E0849132
:101CA000E3E8F5E09491E82FF0E0EE0FFF1FEF5A24
:101CB000FA4FA591B491EC91E92321F461E08AE017
:101CC0000E94220C61E08AE00E94520C8CB5806177
:101CD0008CBD8CB580648CBD61E08DE00E94520C9F
:101CE00061E08BE00E94520C80913A038F5F8093F9
:101CF0003A031FBF8CB580628CBD809183039CB575
:101D0000282F23709C7F922B9CBD2DB582FB992799
:101D100090F9822F8E7F892B8DBD8CB5837F8CBDF2
:101D2000109200051092010510927D0410927E041D
:101D300010929E0410929F041092BF041092C0044F
:101D40001092E0041092E10410927A0410927B0445
:101D50001092F7031092F8031092180410921904CD
:101D60001092390410923A0410925A0410925B04B3
:101D700062E080917F030E94520C61E080917E03BB
:101D80000E94520C809185038F3F19F060E00E9401
:101D9000520CE0917B03F0917C0387818F3F69F1C6
:101DA00061E00E94520CE0917B03F0917C03808102
:101DB00061E0813079F487810E94220C64E670E052
:101DC00080E090E00E948E0CE0917B03F0917C0318
:101DD00060E010C087810E94220CE0917B03F091AB
:101DE0007C0360E087810E94220CE0917B03F091EC
:101DF0007C0361E087810E94220C60E08091810376
:101E00000E94220C60E0809180030E94220C61E01D
:101E100080917E030E94220C60E0809182030E94E8
:101E2000220C6EE170E080E090E00E948E0C8091C8
:101E30008703882321F0809188030E94CA0A1091A9
:101E40007D03113009F04DC064E670E080E090E061
:101E50000E948E0C109303058EE0809304050E946F
:101E6000450A82E095E00E94E60A8823D1F380913A
:101E700004058438B1F780910605833861F484E065
:101E80008093030581E88093040582E08093050533
:101E9000109206050EC081110FC084E080930305E7
:101EA00081E88093040583E0809305051092060580
:101EB00082E0809307050FC0823899F484E0809314
:101EC000030581E88093040581E080930505109265
:101ED00006051092070562E075E086EF93E00E9428
:101EE000D00660E08FE00E94ED086DEE81E00E9478
:101EF000ED0863E080E00E94ED0864E08DE00E9460
:101F0000ED0881E090E09093700380936F0311E0FF
:101F100034E0232E9E012F5F3F4F790144E0A42E31
:101F2000A20EA9868DE493E00E94E60A882309F4B4
:101F3000E5C0E0914F038E2F90E0FC01E158F109DC
:101F4000ED30F10508F0CAC0EC5CFF4F0C94B715FA
:101F5000809152038093920300915003023019F054
:101F6000033051F0CBC087E395E00E94370A00931D
:101F7000910310934C03C2C00093910380917103AD
:101F8000811106C082E295E00E94370A1093710326
:101F900086E095E00E94370A80915103882339F04A
:101FA00064E170E080E090E00E948E0CA7C080E0C9
:101FB00091E00E94D90B82EF94E09EC08091510382
:101FC0008823B9F081ED94E00E94160A80915103B4
:101FD00090E00E94E60B82EC94E00E94160A809149
:101FE000500390E00E94E60B8AE894E00E94370AD2
:101FF000FFCF8BE794E00E94160A8091500390E097
:102000000E94E60B7BC08DE694E076C087E494E006
:1020100073C080915003833989F48DE194E00E946C
:10202000370A86E094E00E94370A10930305209255
:1020300004050E94450A2092910360C087EE93E058
:102040000E94370A80E590E00E94D90B83ED93E06F
:1020500053C083EC93E00E94370A10924B034EC0AA
:1020600080915103823909F449C0809192038F5FB6
:102070008093920343C08BE893E03EC080E893E0F6
:102080000E94370A609150037091510380E090E004
:102090004AE00E94BD0989ED91E00E949B0900E0A1
:1020A000202F30E080914E0390E0029728173907E7
:1020B00054F4F901EF5AFC4F618183E295E00E94EC
:1020C000AF030F5FEDCF89ED91E00E949B0980E0A7
:1020D00091E00E94D90B8CE693E00EC08EE593E070
:1020E0000E94160A60914F0370E080E090E040E1AA
:1020F0000E94BD0983E593E00E94370A80914C035A
:102100008823F1F119828CE794E00E94BC068823B1
:10211000B9F10E94B70B811133C0C7010E948C0B2B
:1021200008E880E090E0DC01023041F14C015D0103
:102130002FEF821A920AA20AB20A8F3F9F4FAF4036
:10214000B105F1F00E94B70B8823A9F08091040536
:102150008438B1F400910605013019F0023039F0ED
:102160000FC0C7010E948C0B812C912C540182E07E
:1021700095E00E94E60AD501C401D6CF10924C0327
:102180002FB7F8948091CC059091CD05A091CE0504
:10219000B091CF052FBF8093770390937803A093DE
:1021A0007903B0937A034091730350917403609163
:1021B0007503709176035C016D01A41AB50AC60A15
:1021C000D70A29EEA21623E0B206C104D104E0F03A
:1021D0008093730390937403A0937503B093760375
:1021E0001093720311C080911B01811128C083E2FA
:1021F00095E00E9456038B32910569F410931B0100
:102200008CED91E00E94AD0983E295E00E94780395
:10221000892B49F719C08D97B9F78AEF91E00E9491
:10222000AD0980917103882319F00E94080904C048
:1022300084E192E00E94AD0910931B01E5CF83E297
:1022400095E00E945603E0CF80917203882309F441
:10225000D8C180911B01811109C084E392E00E94E2
:10226000AD098091710381110E9408091093D10377
:1022700039E33093F3031092D2031092F40364EB2A
:1022800080EC95E00E94B40481E00E946D0A809188
:10229000D0038111FCCF1093D0031093CF038FEFA5
:1022A0008093CE031092CD0383E08093CC031093F0
:1022B000AB038091AB0382678093AB038091AA0349
:1022C000813061F41092AA038091AB038093BB002C
:1022D0008091BC0083FDF8CF85EC01C085EE809332
:1022E000BC008091D0038130E1F38091CD03843034
:1022F00018F48091CD0301C084E0ACEAB3E0E5E1DD
:10230000F3E09E2F25E1A22E23E0B22E9A19981712
:1023100018F49D919193F5CF1092140380931303B9
:10232000670180EC95E00E943204F60181936F0111
:10233000A984AE12F6CF60916F0370917003072EDF
:10234000000C880B990B0E946E1421EE3AE74FE4C3
:1023500052E40E94231520E030E040E752E40E945E
:10236000CB1320E030E040EC50E40E94CB134B0153
:102370005C016A8170E0762F66278981682B072EC1
:10238000000C880B990B0E946E146D837E838F83E3
:1023900098876C8170E0762F66278B81682B072EDB
:1023A000000C880B990B0E946E142B013C0129E252
:1023B0003CE54FEE5FE30E9423159B01AC016D816C
:1023C0007E818F8198850E945913A50194010E94F6
:1023D000CB13062FD72EC82E392E2EEA37E441E232
:1023E0005FE36D817E818F8198850E942315A30113
:1023F00092010E945913A50194010E94CB134B0135
:102400005C019B01AC01602F7D2D8C2D932D0E94D2
:102410001E15181624F0082DD92CCA2C3B2C20E0B0
:1024200030E0A901602F7D2D8C2D932D0E941E156B
:10243000181624F000E0D12CC12C312C802F9D2DBA
:10244000AC2DB32D8093360390933703A0933803BC
:10245000B09339031092720382E592E00E94BB09A7
:1024600087E592E00E94BB0983EC92E00E94BB09E1
:102470008090360390903703A0903803B0903903D2
:10248000A5019401C501B4010E949015882319F09B
:102490008CE592E01AC024013501E89477F82FEF1B
:1024A0003FEF4FE75FE7C301B2010E949015811132
:1024B0000FC02FEF3FEF4FE75FE7C301B2010E946C
:1024C000C61318162CF480E692E00E949B0982C085
:1024D0002FEF3FEF4FE75FE4C501B4010E941E15E7
:1024E00018161CF484E692E0F0CF2FEF3FEF4FE791
:1024F0005FECC501B4010E94C61387FDF3CF20E055
:1025000030E0A901C501B4010E94C61387FF0FC0C6
:10251000E0912305F09124050190F081E02D6DE21A
:1025200083E295E00995B7FAB094B7F8B0942AE041
:1025300037ED43EA5BE3C501B4010E945A132B0156
:102540003C010E943D144B015C010E946C149B01F4
:10255000AC01C301B2010E9459132B013C014AE0B6
:10256000C501B4010E94BD09E0912305F091240545
:102570000190F081E02D6EE283E295E0099520E084
:1025800030E040E251E4C301B2010E9423154B0147
:102590005C010E943D142B01612C712C4AE0C301A7
:1025A000B2010E94BD09C301B2010E946C149B01DB
:1025B000AC01C501B4010E94591320E030E040E2B3
:1025C00051E40E9423150E943D1480E090E04AE00F
:1025D0000E94BD0983EC92E00E94BB096091350323
:1025E00070E080E090E04AE00E94BD0983EC92E058
:1025F0000E94AD09809135038F5F8093350310925F
:102600001B010E9418048ECCE3E2F5E013821282D3
:1026100088EE93E0A0E0B0E084839583A683B7833F
:1026200024E231E03183208325EC30E035872487B4
:1026300024EC30E03787268720EC30E0318B208B8C
:1026400021EC30E0338B228B22EC30E0358B248B75
:1026500026EC30E0378B268B118E128E138E148E63
:10266000E0ECF5E01382128284839583A683B7831E
:1026700086E391E0918380832FB7F8948091CC0515
:102680009091CD05A091CE05B091CF052FBF80933D
:10269000D0059093D105A093D205B093D3050895AA
:1026A000FB01DC0102C005900D9241505040D8F76B
:1026B00008955058BB27AA270E9471130C94E41464
:1026C0000E94D61438F00E94DD1420F039F49F3FA8
:1026D00019F426F40C94D3140EF4E095E7FB0C9453
:1026E000CD14E92F0E94F51458F3BA176207730747
:1026F0008407950720F079F4A6F50C9417150EF4CD
:10270000E0950B2EBA2FA02D0B01B90190010C0101
:10271000CA01A0011124FF27591B99F0593F50F419
:10272000503E68F11A16F040A22F232F342F442771
:10273000585FF3CF469537952795A795F040539569
:10274000C9F77EF41F16BA0B620B730B840BBAF039
:102750009150A1F0FF0FBB1F661F771F881FC2F7A4
:102760000EC0BA0F621F731F841F48F487957795B8
:102770006795B795F7959E3F08F0B0CF9395880F72
:1027800008F09927EE0F9795879508950E94A91450
:1027900008F481E008950E94DF130C94E4140E9471
:1027A000DD1458F00E94D61440F029F45F3F29F060
:1027B0000C94CD1451110C9418150C94D3140E9440
:1027C000F51468F39923B1F3552391F3951B550B39
:1027D000BB27AA2762177307840738F09F5F5F4FF4
:1027E000220F331F441FAA1FA9F335D00E2E3AF033
:1027F000E0E832D091505040E695001CCAF72BD04B
:10280000FE2F29D0660F771F881FBB1F261737079B
:102810004807AB07B0E809F0BB0B802DBF01FF27CD
:1028200093585F4F3AF09E3F510578F00C94CD14C9
:102830000C9418155F3FE4F3983ED4F38695779592
:102840006795B795F7959F5FC9F7880F911D969586
:10285000879597F90895E1E0660F771F881FBB1FE2
:10286000621773078407BA0720F0621B730B840B8F
:10287000BA0BEE1F88F7E09508950E94FD1488F0CA
:102880009F5798F0B92F9927B751B0F0E1F0660F34
:10289000771F881F991F1AF0BA95C9F714C0B13075
:1028A00091F00E941715B1E008950C941715672F49
:1028B000782F8827B85F39F0B93FCCF386957795A4
:1028C0006795B395D9F73EF490958095709561958D
:1028D0007F4F8F4F9F4F0895E89409C097FB3EF4B8
:1028E00090958095709561957F4F8F4F9F4F99235D
:1028F000A9F0F92F96E9BB279395F69587957795DB
:102900006795B795F111F8CFFAF4BB0F11F460FF9A
:102910001BC06F5F7F4F8F4F9F4F16C0882311F0F2
:1029200096E911C0772321F09EE8872F762F05C006
:10293000662371F096E8862F70E060E02AF09A95A1
:10294000660F771F881FDAF7880F9695879597F996
:102950000895990F0008550FAA0BE0E8FEEF161630
:102960001706E807F907C0F012161306E407F50783
:1029700098F0621B730B840B950B39F40A2661F0F7
:10298000232B242B252B21F408950A2609F4A1409A
:10299000A6958FEF811D811D089597F99F6780E8A7
:1029A00070E060E008959FEF80EC089500240A94A1
:1029B0001616170618060906089500240A9412161A
:1029C0001306140605060895092E0394000C11F44D
:1029D000882352F0BB0F40F4BF2B11F460FF04C0FA
:1029E0006F5F7F4F8F4F9F4F089557FD9058440F53
:1029F000551F59F05F3F71F04795880F97FB991F5E
:102A000061F09F3F79F0879508951216130614061A
:102A1000551FF2CF4695F1DF08C0161617061806A7
:102A2000991FF1CF86957105610508940895E89482
:102A3000BB2766277727CB0197F908950E94A91431
:102A400008F48FEF08950E9436150C94E4140E9448
:102A5000D61438F00E94DD1420F0952311F00C9468
:102A6000CD140C94D31411240C9418150E94F51451
:102A700070F3959FC1F3950F50E0551F629FF001D1
:102A8000729FBB27F00DB11D639FAA27F00DB11DEA
:102A9000AA1F649F6627B00DA11D661F829F222773
:102AA000B00DA11D621F739FB00DA11D621F839FFA
:102AB000A00D611D221F749F3327A00D611D231FD0
:102AC000849F600D211D822F762F6A2F11249F571E
:102AD00050409AF0F1F088234AF0EE0FFF1FBB1F21
:102AE000661F771F881F91505040A9F79E3F5105E0
:102AF00080F00C94CD140C9418155F3FE4F3983ECD
:102B0000D4F3869577956795B795F795E7959F5F89
:102B1000C1F7FE2B880F911D9695879597F908951B
:102B20000E94A914880B990B0895A1E21A2EAA1BE2
:102B3000BB1BFD010DC0AA1FBB1FEE1FFF1FA2176D
:102B4000B307E407F50720F0A21BB30BE40BF50B6A
:102B5000661F771F881F991F1A9469F760957095F3
:102B6000809590959B01AC01BD01CF010895EE0FBA
:102B7000FF1F0590F491E02D099481E090E0F89416
:102B80000C94CB15FB01DC0102C001900D92415069
:0A2B90005040D8F70895F894FFCFE5
:102B9A000102000104000180000102000104000199
:102BAA008000010200010400018000011B031B03D5
:102BBA0000000000AF031C034703F6037803560323
:102BCA006A0300000000B40484044F04220446048B
:102BDA0032042304203A0053746172746564206CD1
:102BEA0069676874206D6561737572656D656E7469
:102BFA00207472616E736665722E004552524F528E
:102C0A003A20436F756C64206E6F74207772697412
:102C1A0065206C7578206D6561737572656D656E7A
:102C2A007420746F20426C7565746F6F74682063CA
:102C3A006869702E004552524F523A20436F756CA4
:102C4A0064206E6F742077726974652074696D658B
:102C5A007374616D7020746F20426C7565746F6F48
:102C6A00746820636869702E000D0A0057696669E6
:102C7A00207472616E736D697373696F6E207375F8
:102C8A0063636565656465642E00576966692074C7
:102C9A0072616E736D697373696F6E206661696CB8
:102CAA0065642E0043616E6E6F742073656E6420D6
:102CBA00646174612076696120426C7565746F6F16
:102CCA0074682E0057696669206D6F64756C65209B
:102CDA006E6F7420726573706F6E64696E672E2EE4
:102CEA002E006C7578200030783030006E616E00EE
:102CFA00696E66006F7666004552524F5220002F69
:102D0A00686F6D652F6D617269616E6E652F5249CC
:102D1A004F542050726F6A6563742F6C69622F6218
:102D2A006C652D73646B2D61726475696E6F2D6DA0
:102D3A0061737465722F6C69627261726965732F4F
:102D4A00424C452F6163695F71756575652E6370C5
:0A2D5A0070003A20004300204500FD
:00000001FF
